:100000000C942A000C9447000C9447000C94470071
:100010000C9447000C9447000C9447000C94470044
:100020000C9447000C9447000C9447000C94470034
:100030000C9447000C9447000C9447000C94470024
:100040000C9447000C9447000C9447000C94470014
:100050000C94470011241FBECFE5D8E0DEBFCDBF12
:1000600010E0A0E6B0E0E8EEFFE002C005900D92DF
:10007000A637B107D9F710E0A6E7B0E001C01D929E
:10008000A637B107E1F70E9449000C94F2070C94DF
:100090000000CF93DF9300D000D000D0CDB7DEB703
:1000A0000F2EF0E66F2EF0E07F2EF02D0F2EF6E0F3
:1000B000CF2EF02D0E9415070E945806DE011196E2
:1000C000F3018C2D01900D928150E1F7DD240F2E6C
:1000D000FAE08F2E9924F02D0F2EF4E62F2E3324E4
:1000E000F02D0F2EF0E34F2E5524F02D0E94950693
:1000F000E1E0F0E0EC0FFD1FED0DF11D80838F3F7F
:10010000A9F3813451F08B3241F08D3231F08A32D3
:1001100021F08F3211F08D3319F40E94A007CACF5D
:100120000E947F078D2D8F5F2FEF32E547E0215032
:1001300030404040E1F700C0000001E010E00C0F4B
:100140001D1F080F111D0E949506D8018C938F3F2B
:10015000D1F3813451F08B3241F08D3231F08A325B
:1001600021F08F3211F08D3319F40E94A007A2CF35
:100170000E947F078D2D8E5F2FEF32E547E02150E3
:1001800030404040E1F700C0000001E010E00C0FFB
:100190001D1F080F111D0E949506D8018C938F3FDB
:1001A000D1F3813411F08D3319F40E94A00782CF6E
:1001B0000E947F078D2D8D5F2FEF32E547E02150A4
:1001C00030404040E1F700C0000001E010E00C0FBB
:1001D0001D1F080F111D0E949506D8018C938F3F9B
:1001E000D1F3813451F08B3241F08D3231F08A32CB
:1001F00021F08F3211F08D3319F40E94A0075ACFED
:100200000E947F078D2D8C5F2FEF32E547E0215054
:1002100030404040E1F700C0000001E010E00C0F6A
:100220001D1F080F111D0E949506D8018C938F3F4A
:10023000D1F3813451F08B3241F08D3231F08A327A
:1002400021F08F3211F08D3319F40E94A00732CFC4
:100250000E947F07B5E0DB0E2FEF32E547E021502B
:1002600030404040E1F700C00000ED2CFF2401E0E9
:1002700010E00C0F1D1F0E0D1F1D0E949506D801CA
:100280008C938F3FD1F38D3309F059C20E947F07C1
:10029000EEEFFFEFEC0FFD1FEE0DFF1D80818B32A7
:1002A00069F08C3220F48A3209F04CC201C18D32DF
:1002B00009F47FC08F3209F045C29FC1EDEFFFEF17
:1002C000EC0FFD1FEE0DFF1D4081ECEFFFEFEC0F7B
:1002D000FD1FEE0DFF1D808190E0880F991F9C018E
:1002E000220F331F220F331F820F931FFC01E40FD5
:1002F000F11DAF01EFEFFFEFEC0FFD1FEE0DFF1D46
:10030000808190E0880F991F9C01220F331F220FDC
:10031000331F820F931F840F951FFE01EE0DFF1DEB
:100320002081820F911D0F2EF0EEEF2EFBEFFF2E9E
:10033000F02DE80EF91EC70185569040F3E0833892
:100340009F07D0F4C701B1010E94CB07062FA72E4B
:10035000862F805D0E947F07802F9A2DB4010E9416
:10036000CB07805D0E947F07C701B4010E94CB07C5
:10037000805D0E947F07E6C1C7010B978935910513
:1003800070F4C701B4010E94CB07082F862F805D4F
:100390000E947F07802F805D0E947F07D3C12AE0E3
:1003A000E216F10408F0CEC18E2D805D0E947F0719
:1003B000C9C1EDEFFFEFEC0FFD1FEE0DFF1D4081FA
:1003C000ECEFFFEFEC0FFD1FEE0DFF1D808190E0C5
:1003D000880F991F9C01220F331F220F331F820F9A
:1003E000931FBC01640F711DFE01EE0DFF1D808186
:1003F000A201481B5109EFEFFFEFEC0FFD1FEE0DBF
:10040000FF1D808190E0880F991F9C01220F331FF0
:10041000220F331F820F931FDA01A81BB90BCD01E6
:10042000860F971F0F2EF0EDEF2EFFEFFF2EF02D12
:10043000E80EF91EC70185569040B3E083389B074C
:10044000D0F4C701B1010E94CB07062FA72E862F3B
:10045000805D0E947F07802F9A2DB4010E94CB07F8
:10046000805D0E947F07C701B4010E94CB07805DB9
:100470000E947F0767C1C7010B978935910570F40A
:10048000C701B4010E94CB07082F862F805D0E9410
:100490007F07802F805D0E947F0754C1EAE0EE163F
:1004A000F10408F04FC18E2D805D0E947F074AC184
:1004B000EDEFFFEFEC0FFD1FEE0DFF1D4081ECEFA8
:1004C000FFEFEC0FFD1FEE0DFF1D808190E0880F08
:1004D000991F9C01220F331F220F331F820F931F7E
:1004E000840F911DAC0140515240EFEFFFEFEC0F34
:1004F000FD1FEE0DFF1D808190E0880F991F9C016C
:10050000220F331F220F331F820F931FFE01EE0DA8
:10051000FF1D2081820F911D80519240489F8001D4
:10052000499F100D589F100D1124C801885E9340FB
:10053000F3E288329F0728F5C80168EE73E00E9455
:10054000CB07862F805D0E947F07C801B1010E9402
:10055000CB07CB01B4010E94CB07805D0E947F07CF
:10056000C801B4010E94CB07082FCB01B4010E943F
:10057000CB07805D0E947F07802F805D0E947F07F0
:10058000E1C0C8018456904023E084389207C8F443
:10059000C801B1010E94CB07862F805D0E947F07B2
:1005A000C801B4010E94CB07082FCB01B4010E94FF
:1005B000CB07805D0E947F07802F805D0E947F07B0
:1005C000C1C0C8010A978A35910570F4C801B40109
:1005D0000E94CB07082F862F805D0E947F07802F07
:1005E000805D0E947F07AEC00A30110508F0AAC0E6
:1005F000802F805D0E947F07A5C0EDEFFFEFEC0F1D
:10060000FD1FEE0DFF1D4081ECEFFFEFEC0FFD1F16
:10061000EE0DFF1D808190E0880F991F9C01220F35
:10062000331F220F331F820F931F840F911D9C01D4
:1006300020513240EFEFFFEFEC0FFD1FEE0DFF1DDD
:10064000608170E0660F771FCB01880F991F880FBC
:10065000991F680F791FFE01EE0DFF1D8081680F45
:10066000711D60517240C9010E94DF077B01CB01FF
:10067000895E934033E28732930728F5CB0168EE19
:1006800073E00E94CB07862F805D0E947F07C70121
:10069000B1010E94CB07CB01B4010E94CB07805D62
:1006A0000E947F07C701B4010E94CB07082FCB012E
:1006B000B4010E94CB07805D0E947F07802F805D80
:1006C0000E947F073FC0CB018556904043E08338AE
:1006D0009407D0F4CB01B1010E94CB07062FA72EBF
:1006E000862F805D0E947F07802F9A2DB4010E9483
:1006F000CB07805D0E947F07C701B4010E94CB0732
:10070000805D0E947F071EC0CB010B978935910544
:1007100070F4CB01B4010E94CB07082F862F805DB7
:100720000E947F07802F805D0E947F070BC06A3088
:10073000710540F4862F805D0E947F0703C00E94F0
:10074000A007B8CC8FEF91EEA4E081509040A0407C
:10075000E1F700C00000CACC823451F1833420F4A8
:10076000813409F07BC007C0833409F43EC084346F
:1007700009F074C057C0413069F42AB381E090E0B9
:10078000AC0102C0440F551F6A95E2F7BA01622B13
:100790006ABB08952AB381E090E0AC0102C0440F27
:1007A000551F6A95E2F7BA01609562236ABB089506
:1007B000413069F427B381E090E0AC0102C0440FFE
:1007C000551F6A95E2F7BA01622B67BB089527B3FC
:1007D00081E090E0AC0102C0440F551F6A95E2F73A
:1007E000BA016095622367BB0895413069F424B370
:1007F00081E090E0AC0102C0440F551F6A95E2F71A
:10080000BA01622B64BB089524B381E090E0AC018F
:1008100002C0440F551F6A95E2F7BA016095622342
:1008200064BB0895413069F421B381E090E0AC01EC
:1008300002C0440F551F6A95E2F7BA01622B61BBF3
:10084000089521B381E090E0AC0102C0440F551F30
:100850006A95E2F7BA016095622361BB089582341C
:1008600051F1833420F4813409F07BC007C0833414
:1008700009F43EC0843409F074C057C0413069F4B3
:100880002BB381E090E0AC0102C0440F551F6A9584
:10089000E2F7BA01622B6BBB08952BB381E090E0C5
:1008A000AC0102C0440F551F6A95E2F7BA0160958A
:1008B00062236BBB0895413069F428B381E090E076
:1008C000AC0102C0440F551F6A95E2F7BA01622BD2
:1008D00068BB089528B381E090E0AC0102C0440FEA
:1008E000551F6A95E2F7BA016095622368BB0895C7
:1008F000413069F425B381E090E0AC0102C0440FBF
:10090000551F6A95E2F7BA01622B65BB089525B3BE
:1009100081E090E0AC0102C0440F551F6A95E2F7F8
:10092000BA016095622365BB0895413069F422B332
:1009300081E090E0AC0102C0440F551F6A95E2F7D8
:10094000BA01622B62BB089522B381E090E0AC0152
:1009500002C0440F551F6A95E2F7BA016095622301
:1009600062BB08958234F1F0833420F4813409F0BD
:100970004FC006C0833441F1843409F049C036C009
:1009800029B381E090E0062E02C0880F991F0A94D7
:10099000E2F730E08223932302C0959587956A950C
:1009A000E2F7089526B381E090E0062E02C0880F9A
:1009B000991F0A94E2F730E08223932302C09595B1
:1009C00087956A95E2F7089523B381E090E0062EBB
:1009D00002C0880F991F0A94E2F730E08223932324
:1009E00002C0959587956A95E2F7089520B381E056
:1009F00090E0062E02C0880F991F0A94E2F730E0BB
:100A00008223932302C0959587956A95E2F708950E
:100A100080E008958234B9F0833418F48134C9F544
:100A200005C08334E9F08434A1F527C02BB381E0FD
:100A300090E0AC0102C0440F551F6A95E2F7BA017D
:100A400062276BBB089528B381E090E0AC0102C03F
:100A5000440F551F6A95E2F7BA01622768BB0895F3
:100A600025B381E090E0AC0102C0440F551F6A95A8
:100A7000E2F7BA01622765BB089522B381E090E0F6
:100A8000AC0102C0440F551F6A95E2F7BA01622714
:100A900062BB0895823461F0833418F4813469F4C0
:100AA00005C0833439F0843441F406C06ABB08952C
:100AB00067BB089564BB089561BB0895823461F0FB
:100AC000833418F4813469F405C0833439F08434F4
:100AD00041F406C06BBB089568BB089565BB0895DB
:100AE00062BB0895823461F0833418F4813471F468
:100AF00005C0833439F0843449F406C089B30895BD
:100B000086B3089583B3089580B3089580E008956F
:100B1000823451F1833420F4813409F07BC007C062
:100B2000833409F43EC0843409F074C057C04130A6
:100B300069F42BB381E090E0AC0102C0440F551F73
:100B40006A95E2F7BA01622B6BBB08952BB381E083
:100B500090E0AC0102C0440F551F6A95E2F7BA015C
:100B6000609562236BBB0895413069F428B381E03E
:100B700090E0AC0102C0440F551F6A95E2F7BA013C
:100B8000622B68BB089528B381E090E0AC0102C0FD
:100B9000440F551F6A95E2F7BA016095622368BB5E
:100BA0000895413069F425B381E090E0AC0102C0C2
:100BB000440F551F6A95E2F7BA01622B65BB089591
:100BC00025B381E090E0AC0102C0440F551F6A9547
:100BD000E2F7BA016095622365BB0895413069F47C
:100BE00022B381E090E0AC0102C0440F551F6A952A
:100BF000E2F7BA01622B62BB089522B381E090E074
:100C0000AC0102C0440F551F6A95E2F7BA01609526
:100C1000622362BB08956F70823481F0833418F4CC
:100C20008134F1F405C0833479F08434C9F412C0FE
:100C30008BB3807F8BBB8BB3862B8BBB88B3807FC2
:100C400088BB88B3862B88BB85B3807F85BB85B383
:100C5000862B85BB82B3807F82BB82B3682B62BB4D
:100C600008956295607F823481F0833418F4813472
:100C7000F1F405C0833479F08434C9F412C08BB325
:100C80008F708BBB8BB3862B8BBB88B38F7088BB6D
:100C900088B3862B88BB85B38F7085BB85B3862BC5
:100CA00085BB82B38F7082BB82B3682B62BB089511
:100CB00084E460E041E00E94AC0384E461E041E050
:100CC0000E94AC0384E462E041E00E94AC0384E44F
:100CD00063E041E00E94AC0384E464E040E00E94F1
:100CE000AC0384E465E040E00E94AC0384E466E089
:100CF00040E00E94AC0384E467E040E00E94AC0363
:100D000084E464E041E00E94880584E465E041E019
:100D10000E94880584E466E041E00E94880584E43E
:100D200067E041E00E94880508950F931F93CF93D9
:100D3000DF93CDB7DEB760970FB6F894DEBF0FBE76
:100D4000CDBFDE011196E6E6F0E080E101900D9264
:100D50008150E1F700E084E460E041E00E942F046C
:100D600084E461E041E00E942F0484E462E041E019
:100D70000E942F0484E463E041E00E942F0484E495
:100D8000602F40E00E942F0410E0612F6C5F84E42C
:100D90000E94B204882361F4E02FF0E0EE0FFF1F01
:100DA000EE0FFF1FE10FF11DEC0FFD1F818104C04D
:100DB0001F5F143051F70BC060960FB6F894DEBF7A
:100DC0000FBECDBFDF91CF911F910F9108950F5F9F
:100DD000043009F68FEFF0CF82E460E041E00E943A
:100DE0002F048FE99FE00197F1F700C0000082E433
:100DF00060E040E00E942F048FE99FE00197F1F747
:100E000000C000000895682F81E40E945E0582E41E
:100E100061E040E00E942F040E94EC068FEC97E016
:100E20000197F1F700C0000008958FEF91EEA4E064
:100E300081509040A040E1F700C0000081E460E0F4
:100E400041E00E94AC0381E461E041E00E94AC0318
:100E500081E462E041E00E94AC0381E463E041E0B0
:100E60000E94AC0381E464E041E00E94AC0381E4B1
:100E700065E041E00E94AC0381E466E041E00E944D
:100E8000AC0381E467E041E00E94AC0382E460E0EF
:100E900041E00E94AC0382E462E041E00E94AC03C6
:100EA00082E461E041E00E94AC0382E462E040E061
:100EB0000E942F0488E30E940307AFECB7E011976C
:100EC000F1F700C000008EE00E9403078FEC97E06E
:100ED0000197F1F700C0000081E00E940307AFE135
:100EE000BEE41197F1F700C0000086E00E940307FE
:100EF0008FEC97E00197F1F700C000000895682F8C
:100F000081E40E945E0582E461E041E00E942F04DA
:100F10000E94EC068FEC97E00197F1F700C000000B
:100F20000895CF93DF93EC018881882331F02196D7
:100F30000E947F0789918823D9F7DF91CF91089587
:100F400081E00E9403078FE19EE40197F1F700C062
:100F500000000895282F2150223070F4613170F480
:100F6000662371F0813019F4962F91580AC08230AF
:100F700041F4962F915405C090E803C090E801C059
:100F800090E8892F0E9403078FEC97E00197F1F713
:100F900000C000000895AA1BBB1B51E107C0AA1F97
:100FA000BB1FA617B70710F0A61BB70B881F991F0A
:100FB0005A95A9F780959095BC01CD01089597FBAE
:100FC000092E07260AD077FD04D0E5DF06D00020E1
:100FD0001AF4709561957F4F0895F6F79095819575
:080FE0009F4F0895F894FFCF24
:100FE800FFFFFFFFFFFF3738392F3435362A3132FC
:060FF800332D41303D2BBA
:00000001FF
